{
  "_format": "hh-sol-artifact-1",
  "contractName": "MyEpicNFT",
  "sourceName": "contracts/MyEpicNFT.sol",
  "abi": [
    {
      "inputs": [],
      "stateMutability": "nonpayable",
      "type": "constructor"
    },
    {
      "anonymous": false,
      "inputs": [
        {
          "indexed": true,
          "internalType": "address",
          "name": "owner",
          "type": "address"
        },
        {
          "indexed": true,
          "internalType": "address",
          "name": "approved",
          "type": "address"
        },
        {
          "indexed": true,
          "internalType": "uint256",
          "name": "tokenId",
          "type": "uint256"
        }
      ],
      "name": "Approval",
      "type": "event"
    },
    {
      "anonymous": false,
      "inputs": [
        {
          "indexed": true,
          "internalType": "address",
          "name": "owner",
          "type": "address"
        },
        {
          "indexed": true,
          "internalType": "address",
          "name": "operator",
          "type": "address"
        },
        {
          "indexed": false,
          "internalType": "bool",
          "name": "approved",
          "type": "bool"
        }
      ],
      "name": "ApprovalForAll",
      "type": "event"
    },
    {
      "anonymous": false,
      "inputs": [
        {
          "indexed": false,
          "internalType": "address",
          "name": "sender",
          "type": "address"
        },
        {
          "indexed": false,
          "internalType": "uint256",
          "name": "tokenId",
          "type": "uint256"
        }
      ],
      "name": "NewEpicNFTMinted",
      "type": "event"
    },
    {
      "anonymous": false,
      "inputs": [
        {
          "indexed": true,
          "internalType": "address",
          "name": "from",
          "type": "address"
        },
        {
          "indexed": true,
          "internalType": "address",
          "name": "to",
          "type": "address"
        },
        {
          "indexed": true,
          "internalType": "uint256",
          "name": "tokenId",
          "type": "uint256"
        }
      ],
      "name": "Transfer",
      "type": "event"
    },
    {
      "inputs": [
        {
          "internalType": "address",
          "name": "to",
          "type": "address"
        },
        {
          "internalType": "uint256",
          "name": "tokenId",
          "type": "uint256"
        }
      ],
      "name": "approve",
      "outputs": [],
      "stateMutability": "nonpayable",
      "type": "function"
    },
    {
      "inputs": [
        {
          "internalType": "address",
          "name": "owner",
          "type": "address"
        }
      ],
      "name": "balanceOf",
      "outputs": [
        {
          "internalType": "uint256",
          "name": "",
          "type": "uint256"
        }
      ],
      "stateMutability": "view",
      "type": "function"
    },
    {
      "inputs": [
        {
          "internalType": "uint256",
          "name": "tokenId",
          "type": "uint256"
        }
      ],
      "name": "getApproved",
      "outputs": [
        {
          "internalType": "address",
          "name": "",
          "type": "address"
        }
      ],
      "stateMutability": "view",
      "type": "function"
    },
    {
      "inputs": [
        {
          "internalType": "address",
          "name": "owner",
          "type": "address"
        },
        {
          "internalType": "address",
          "name": "operator",
          "type": "address"
        }
      ],
      "name": "isApprovedForAll",
      "outputs": [
        {
          "internalType": "bool",
          "name": "",
          "type": "bool"
        }
      ],
      "stateMutability": "view",
      "type": "function"
    },
    {
      "inputs": [],
      "name": "makeAnEpicNFT",
      "outputs": [],
      "stateMutability": "nonpayable",
      "type": "function"
    },
    {
      "inputs": [],
      "name": "name",
      "outputs": [
        {
          "internalType": "string",
          "name": "",
          "type": "string"
        }
      ],
      "stateMutability": "view",
      "type": "function"
    },
    {
      "inputs": [
        {
          "internalType": "uint256",
          "name": "tokenId",
          "type": "uint256"
        }
      ],
      "name": "ownerOf",
      "outputs": [
        {
          "internalType": "address",
          "name": "",
          "type": "address"
        }
      ],
      "stateMutability": "view",
      "type": "function"
    },
    {
      "inputs": [
        {
          "internalType": "uint256",
          "name": "tokenId",
          "type": "uint256"
        }
      ],
      "name": "pickRandomColor",
      "outputs": [
        {
          "internalType": "string",
          "name": "",
          "type": "string"
        }
      ],
      "stateMutability": "view",
      "type": "function"
    },
    {
      "inputs": [
        {
          "internalType": "uint256",
          "name": "tokenId",
          "type": "uint256"
        }
      ],
      "name": "pickRandomFirstWord",
      "outputs": [
        {
          "internalType": "string",
          "name": "",
          "type": "string"
        }
      ],
      "stateMutability": "view",
      "type": "function"
    },
    {
      "inputs": [
        {
          "internalType": "uint256",
          "name": "tokenId",
          "type": "uint256"
        }
      ],
      "name": "pickRandomSecondWord",
      "outputs": [
        {
          "internalType": "string",
          "name": "",
          "type": "string"
        }
      ],
      "stateMutability": "view",
      "type": "function"
    },
    {
      "inputs": [
        {
          "internalType": "uint256",
          "name": "tokenId",
          "type": "uint256"
        }
      ],
      "name": "pickRandomThirdWord",
      "outputs": [
        {
          "internalType": "string",
          "name": "",
          "type": "string"
        }
      ],
      "stateMutability": "view",
      "type": "function"
    },
    {
      "inputs": [
        {
          "internalType": "address",
          "name": "from",
          "type": "address"
        },
        {
          "internalType": "address",
          "name": "to",
          "type": "address"
        },
        {
          "internalType": "uint256",
          "name": "tokenId",
          "type": "uint256"
        }
      ],
      "name": "safeTransferFrom",
      "outputs": [],
      "stateMutability": "nonpayable",
      "type": "function"
    },
    {
      "inputs": [
        {
          "internalType": "address",
          "name": "from",
          "type": "address"
        },
        {
          "internalType": "address",
          "name": "to",
          "type": "address"
        },
        {
          "internalType": "uint256",
          "name": "tokenId",
          "type": "uint256"
        },
        {
          "internalType": "bytes",
          "name": "_data",
          "type": "bytes"
        }
      ],
      "name": "safeTransferFrom",
      "outputs": [],
      "stateMutability": "nonpayable",
      "type": "function"
    },
    {
      "inputs": [
        {
          "internalType": "address",
          "name": "operator",
          "type": "address"
        },
        {
          "internalType": "bool",
          "name": "approved",
          "type": "bool"
        }
      ],
      "name": "setApprovalForAll",
      "outputs": [],
      "stateMutability": "nonpayable",
      "type": "function"
    },
    {
      "inputs": [
        {
          "internalType": "bytes4",
          "name": "interfaceId",
          "type": "bytes4"
        }
      ],
      "name": "supportsInterface",
      "outputs": [
        {
          "internalType": "bool",
          "name": "",
          "type": "bool"
        }
      ],
      "stateMutability": "view",
      "type": "function"
    },
    {
      "inputs": [],
      "name": "symbol",
      "outputs": [
        {
          "internalType": "string",
          "name": "",
          "type": "string"
        }
      ],
      "stateMutability": "view",
      "type": "function"
    },
    {
      "inputs": [
        {
          "internalType": "uint256",
          "name": "tokenId",
          "type": "uint256"
        }
      ],
      "name": "tokenURI",
      "outputs": [
        {
          "internalType": "string",
          "name": "",
          "type": "string"
        }
      ],
      "stateMutability": "view",
      "type": "function"
    },
    {
      "inputs": [],
      "name": "totalNftsMinted",
      "outputs": [
        {
          "internalType": "uint256",
          "name": "",
          "type": "uint256"
        }
      ],
      "stateMutability": "view",
      "type": "function"
    },
    {
      "inputs": [
        {
          "internalType": "address",
          "name": "from",
          "type": "address"
        },
        {
          "internalType": "address",
          "name": "to",
          "type": "address"
        },
        {
          "internalType": "uint256",
          "name": "tokenId",
          "type": "uint256"
        }
      ],
      "name": "transferFrom",
      "outputs": [],
      "stateMutability": "nonpayable",
      "type": "function"
    }
  ],
  "bytecode": "0x608060405260405180610100016040528060d3815260200162004e1e60d39139600990805190602001906200003692919062000ea3565b5060405180608001604052806056815260200162004ef160569139600a90805190602001906200006892919062000ea3565b50604051806101e001604052806040518060400160405280600681526020017f436c65766572000000000000000000000000000000000000000000000000000081525081526020016040518060400160405280600a81526020017f486973746f726963616c0000000000000000000000000000000000000000000081525081526020016040518060400160405280600881526020017f5374616e64696e6700000000000000000000000000000000000000000000000081525081526020016040518060400160405280600481526020017f526970650000000000000000000000000000000000000000000000000000000081525081526020016040518060400160405280600581526020017f537769667400000000000000000000000000000000000000000000000000000081525081526020016040518060400160405280600781526020017f5761726c696b650000000000000000000000000000000000000000000000000081525081526020016040518060400160405280600681526020017f427269676874000000000000000000000000000000000000000000000000000081525081526020016040518060400160405280600781526020017f57496c6c696e670000000000000000000000000000000000000000000000000081525081526020016040518060400160405280600781526020017f48697373696e670000000000000000000000000000000000000000000000000081525081526020016040518060400160405280600781526020017f4f7074696d616c0000000000000000000000000000000000000000000000000081525081526020016040518060400160405280600681526020017f517569616e74000000000000000000000000000000000000000000000000000081525081526020016040518060400160405280600881526020017f446563697369766500000000000000000000000000000000000000000000000081525081526020016040518060400160405280600a81526020017f49727269746174696e670000000000000000000000000000000000000000000081525081526020016040518060400160405280600581526020017f42756d707900000000000000000000000000000000000000000000000000000081525081526020016040518060400160405280600581526020017f5261706964000000000000000000000000000000000000000000000000000000815250815250600b90600f620003fa92919062000f34565b506040518061020001604052806040518060400160405280600781526020017f436865657461680000000000000000000000000000000000000000000000000081525081526020016040518060400160405280600381526020017f446f67000000000000000000000000000000000000000000000000000000000081525081526020016040518060400160405280600481526020017f476f61740000000000000000000000000000000000000000000000000000000081525081526020016040518060400160405280600481526020017f496265780000000000000000000000000000000000000000000000000000000081525081526020016040518060400160405280600981526020017f537072696e67626f6b000000000000000000000000000000000000000000000081525081526020016040518060400160405280600981526020017f43726f636f64696c65000000000000000000000000000000000000000000000081525081526020016040518060400160405280600881526020017f4d6f6e676f6f736500000000000000000000000000000000000000000000000081525081526020016040518060400160405280600881526020017f506172616b65657400000000000000000000000000000000000000000000000081525081526020016040518060400160405280600681526020017f426561766572000000000000000000000000000000000000000000000000000081525081526020016040518060400160405280600481526020017f466973680000000000000000000000000000000000000000000000000000000081525081526020016040518060400160405280600381526020017f426174000000000000000000000000000000000000000000000000000000000081525081526020016040518060400160405280600381526020017f446f65000000000000000000000000000000000000000000000000000000000081525081526020016040518060400160405280600881526020017f416e74656174657200000000000000000000000000000000000000000000000081525081526020016040518060400160405280600481526020017f44756e670000000000000000000000000000000000000000000000000000000081525081526020016040518060400160405280600681526020017f426565746c65000000000000000000000000000000000000000000000000000081525081526020016040518060400160405280600781526020017f57617274686f6700000000000000000000000000000000000000000000000000815250815250600c906010620007c792919062000f9b565b50604051806101e001604052806040518060400160405280600781526020017f526164696174650000000000000000000000000000000000000000000000000081525081526020016040518060400160405280600681526020017f44697361726d000000000000000000000000000000000000000000000000000081525081526020016040518060400160405280600381526020017f52756e000000000000000000000000000000000000000000000000000000000081525081526020016040518060400160405280600481526020017f57616c6b0000000000000000000000000000000000000000000000000000000081525081526020016040518060400160405280600381526020017f446965000000000000000000000000000000000000000000000000000000000081525081526020016040518060400160405280600381526020017f426f77000000000000000000000000000000000000000000000000000000000081525081526020016040518060400160405280600481526020017f576176650000000000000000000000000000000000000000000000000000000081525081526020016040518060400160405280600481526020017f436865770000000000000000000000000000000000000000000000000000000081525081526020016040518060400160405280600581526020017f43686f6b6500000000000000000000000000000000000000000000000000000081525081526020016040518060400160405280600581526020017f44726f776e00000000000000000000000000000000000000000000000000000081525081526020016040518060400160405280600681526020017f53717565616b000000000000000000000000000000000000000000000000000081525081526020016040518060400160405280600681526020017f537566666572000000000000000000000000000000000000000000000000000081525081526020016040518060400160405280600681526020017f54756d626c65000000000000000000000000000000000000000000000000000081525081526020016040518060400160405280600481526020017f526163650000000000000000000000000000000000000000000000000000000081525081526020016040518060400160405280600581526020017f5175657565000000000000000000000000000000000000000000000000000000815250815250600d90600f62000b5992919062000f34565b506040518060c001604052806040518060400160405280600381526020017f726564000000000000000000000000000000000000000000000000000000000081525081526020016040518060400160405280600781526020017f233038433241380000000000000000000000000000000000000000000000000081525081526020016040518060400160405280600581526020017f626c61636b00000000000000000000000000000000000000000000000000000081525081526020016040518060400160405280600681526020017f79656c6c6f77000000000000000000000000000000000000000000000000000081525081526020016040518060400160405280600481526020017f626c75650000000000000000000000000000000000000000000000000000000081525081526020016040518060400160405280600581526020017f677265656e000000000000000000000000000000000000000000000000000000815250815250600e90600662000cd792919062001002565b5034801562000ce557600080fd5b506040518060400160405280600981526020017f5371756172654e465400000000000000000000000000000000000000000000008152506040518060400160405280600681526020017f5351554152450000000000000000000000000000000000000000000000000000815250816000908051906020019062000d6a92919062000ea3565b50806001908051906020019062000d8392919062000ea3565b50505062000dd16040518060400160405280601e81526020017f54686973206973206d79204e465420636f6e74726163742e20576f616821000081525062000dd760201b620012db1760201c565b62001223565b62000e778160405160240162000dee919062001137565b6040516020818303038152906040527f41304fac000000000000000000000000000000000000000000000000000000007bffffffffffffffffffffffffffffffffffffffffffffffffffffffff19166020820180517bffffffffffffffffffffffffffffffffffffffffffffffffffffffff838183161783525050505062000e7a60201b60201c565b50565b60008151905060006a636f6e736f6c652e6c6f679050602083016000808483855afa5050505050565b82805462000eb190620011ad565b90600052602060002090601f01602090048101928262000ed5576000855562000f21565b82601f1062000ef057805160ff191683800117855562000f21565b8280016001018555821562000f21579182015b8281111562000f2057825182559160200191906001019062000f03565b5b50905062000f30919062001069565b5090565b82805482825590600052602060002090810192821562000f88579160200282015b8281111562000f8757825182908051906020019062000f7692919062000ea3565b509160200191906001019062000f55565b5b50905062000f97919062001088565b5090565b82805482825590600052602060002090810192821562000fef579160200282015b8281111562000fee57825182908051906020019062000fdd92919062000ea3565b509160200191906001019062000fbc565b5b50905062000ffe919062001088565b5090565b82805482825590600052602060002090810192821562001056579160200282015b82811115620010555782518290805190602001906200104492919062000ea3565b509160200191906001019062001023565b5b50905062001065919062001088565b5090565b5b80821115620010845760008160009055506001016200106a565b5090565b5b80821115620010ac5760008181620010a29190620010b0565b5060010162001089565b5090565b508054620010be90620011ad565b6000825580601f10620010d25750620010f3565b601f016020900490600052602060002090810190620010f2919062001069565b5b50565b600062001103826200115b565b6200110f818562001166565b93506200112181856020860162001177565b6200112c8162001212565b840191505092915050565b60006020820190508181036000830152620011538184620010f6565b905092915050565b600081519050919050565b600082825260208201905092915050565b60005b83811015620011975780820151818401526020810190506200117a565b83811115620011a7576000848401525b50505050565b60006002820490506001821680620011c657607f821691505b60208210811415620011dd57620011dc620011e3565b5b50919050565b7f4e487b7100000000000000000000000000000000000000000000000000000000600052602260045260246000fd5b6000601f19601f8301169050919050565b613beb80620012336000396000f3fe608060405234801561001057600080fd5b50600436106101215760003560e01c806370a08231116100ad578063b88d4fde11610071578063b88d4fde14610340578063c575757a1461035c578063c87b56dd1461038c578063de9d132f146103bc578063e985e9c5146103c657610121565b806370a082311461028857806372fbaacb146102b857806395d89b41146102d6578063a22cb465146102f4578063b187301f1461031057610121565b806323b872dd116100f457806323b872dd146101c05780632de38d68146101dc57806342842e0e1461020c578063514dc8c6146102285780636352211e1461025857610121565b806301ffc9a71461012657806306fdde0314610156578063081812fc14610174578063095ea7b3146101a4575b600080fd5b610140600480360381019061013b91906126db565b6103f6565b60405161014d9190613441565b60405180910390f35b61015e6104d8565b60405161016b919061345c565b60405180910390f35b61018e6004803603810190610189919061272d565b61056a565b60405161019b91906133b1565b60405180910390f35b6101be60048036038101906101b9919061269f565b6105ef565b005b6101da60048036038101906101d59190612599565b610707565b005b6101f660048036038101906101f1919061272d565b610767565b604051610203919061345c565b60405180910390f35b61022660048036038101906102219190612599565b610885565b005b610242600480360381019061023d919061272d565b6108a5565b60405161024f919061345c565b60405180910390f35b610272600480360381019061026d919061272d565b6109c3565b60405161027f91906133b1565b60405180910390f35b6102a2600480360381019061029d9190612534565b610a75565b6040516102af91906136dc565b60405180910390f35b6102c0610b2d565b6040516102cd91906136dc565b60405180910390f35b6102de610b3a565b6040516102eb919061345c565b60405180910390f35b61030e60048036038101906103099190612663565b610bcc565b005b61032a6004803603810190610325919061272d565b610be2565b604051610337919061345c565b60405180910390f35b61035a600480360381019061035591906125e8565b610d00565b005b6103766004803603810190610371919061272d565b610d62565b604051610383919061345c565b60405180910390f35b6103a660048036038101906103a1919061272d565b610e80565b6040516103b3919061345c565b60405180910390f35b6103c4610fd2565b005b6103e060048036038101906103db919061255d565b611247565b6040516103ed9190613441565b60405180910390f35b60007f80ac58cd000000000000000000000000000000000000000000000000000000007bffffffffffffffffffffffffffffffffffffffffffffffffffffffff1916827bffffffffffffffffffffffffffffffffffffffffffffffffffffffff191614806104c157507f5b5e139f000000000000000000000000000000000000000000000000000000007bffffffffffffffffffffffffffffffffffffffffffffffffffffffff1916827bffffffffffffffffffffffffffffffffffffffffffffffffffffffff1916145b806104d157506104d082611374565b5b9050919050565b6060600080546104e79061397b565b80601f01602080910402602001604051908101604052809291908181526020018280546105139061397b565b80156105605780601f1061053557610100808354040283529160200191610560565b820191906000526020600020905b81548152906001019060200180831161054357829003601f168201915b5050505050905090565b6000610575826113de565b6105b4576040517f08c379a00000000000000000000000000000000000000000000000000000000081526004016105ab9061363c565b60405180910390fd5b6004600083815260200190815260200160002060009054906101000a900473ffffffffffffffffffffffffffffffffffffffff169050919050565b60006105fa826109c3565b90508073ffffffffffffffffffffffffffffffffffffffff168373ffffffffffffffffffffffffffffffffffffffff16141561066b576040517f08c379a00000000000000000000000000000000000000000000000000000000081526004016106629061369c565b60405180910390fd5b8073ffffffffffffffffffffffffffffffffffffffff1661068a61144a565b73ffffffffffffffffffffffffffffffffffffffff1614806106b957506106b8816106b361144a565b611247565b5b6106f8576040517f08c379a00000000000000000000000000000000000000000000000000000000081526004016106ef9061357c565b60405180910390fd5b6107028383611452565b505050565b61071861071261144a565b8261150b565b610757576040517f08c379a000000000000000000000000000000000000000000000000000000000815260040161074e906136bc565b60405180910390fd5b6107628383836115e9565b505050565b6060600061079b61077784611845565b604051602001610787919061334b565b6040516020818303038152906040526119f2565b9050600b80549050816107ae91906139f6565b9050600b81815481106107ea577f4e487b7100000000000000000000000000000000000000000000000000000000600052603260045260246000fd5b9060005260206000200180546107ff9061397b565b80601f016020809104026020016040519081016040528092919081815260200182805461082b9061397b565b80156108785780601f1061084d57610100808354040283529160200191610878565b820191906000526020600020905b81548152906001019060200180831161085b57829003601f168201915b5050505050915050919050565b6108a083838360405180602001604052806000815250610d00565b505050565b606060006108d96108b584611845565b6040516020016108c5919061338f565b6040516020818303038152906040526119f2565b9050600e80549050816108ec91906139f6565b9050600e8181548110610928577f4e487b7100000000000000000000000000000000000000000000000000000000600052603260045260246000fd5b90600052602060002001805461093d9061397b565b80601f01602080910402602001604051908101604052809291908181526020018280546109699061397b565b80156109b65780601f1061098b576101008083540402835291602001916109b6565b820191906000526020600020905b81548152906001019060200180831161099957829003601f168201915b5050505050915050919050565b6000806002600084815260200190815260200160002060009054906101000a900473ffffffffffffffffffffffffffffffffffffffff169050600073ffffffffffffffffffffffffffffffffffffffff168173ffffffffffffffffffffffffffffffffffffffff161415610a6c576040517f08c379a0000000000000000000000000000000000000000000000000000000008152600401610a63906135bc565b60405180910390fd5b80915050919050565b60008073ffffffffffffffffffffffffffffffffffffffff168273ffffffffffffffffffffffffffffffffffffffff161415610ae6576040517f08c379a0000000000000000000000000000000000000000000000000000000008152600401610add9061359c565b60405180910390fd5b600360008373ffffffffffffffffffffffffffffffffffffffff1673ffffffffffffffffffffffffffffffffffffffff168152602001908152602001600020549050919050565b6000600860000154905090565b606060018054610b499061397b565b80601f0160208091040260200160405190810160405280929190818152602001828054610b759061397b565b8015610bc25780601f10610b9757610100808354040283529160200191610bc2565b820191906000526020600020905b815481529060010190602001808311610ba557829003601f168201915b5050505050905090565b610bde610bd761144a565b8383611a25565b5050565b60606000610c16610bf284611845565b604051602001610c0291906132e4565b6040516020818303038152906040526119f2565b9050600c8054905081610c2991906139f6565b9050600c8181548110610c65577f4e487b7100000000000000000000000000000000000000000000000000000000600052603260045260246000fd5b906000526020600020018054610c7a9061397b565b80601f0160208091040260200160405190810160405280929190818152602001828054610ca69061397b565b8015610cf35780601f10610cc857610100808354040283529160200191610cf3565b820191906000526020600020905b815481529060010190602001808311610cd657829003601f168201915b5050505050915050919050565b610d11610d0b61144a565b8361150b565b610d50576040517f08c379a0000000000000000000000000000000000000000000000000000000008152600401610d47906136bc565b60405180910390fd5b610d5c84848484611b92565b50505050565b60606000610d96610d7284611845565b604051602001610d8291906132c2565b6040516020818303038152906040526119f2565b9050600d8054905081610da991906139f6565b9050600d8181548110610de5577f4e487b7100000000000000000000000000000000000000000000000000000000600052603260045260246000fd5b906000526020600020018054610dfa9061397b565b80601f0160208091040260200160405190810160405280929190818152602001828054610e269061397b565b8015610e735780601f10610e4857610100808354040283529160200191610e73565b820191906000526020600020905b815481529060010190602001808311610e5657829003601f168201915b5050505050915050919050565b6060610e8b826113de565b610eca576040517f08c379a0000000000000000000000000000000000000000000000000000000008152600401610ec19061361c565b60405180910390fd5b6000600660008481526020019081526020016000208054610eea9061397b565b80601f0160208091040260200160405190810160405280929190818152602001828054610f169061397b565b8015610f635780601f10610f3857610100808354040283529160200191610f63565b820191906000526020600020905b815481529060010190602001808311610f4657829003601f168201915b505050505090506000610f74611bee565b9050600081511415610f8a578192505050610fcd565b600082511115610fbf578082604051602001610fa7929190613202565b60405160208183030381529060405292505050610fcd565b610fc884611c05565b925050505b919050565b6000610fde6008611cac565b905060328110611023576040517f08c379a000000000000000000000000000000000000000000000000000000000815260040161101a906134fc565b60405180910390fd5b600061102f6007611cac565b9050600061103c82610767565b9050600061104983610be2565b9050600061105684610d62565b9050600083838360405160200161106f93929190613226565b6040516020818303038152906040529050600061108b866108a5565b90506000600982600a856040516020016110a89493929190613257565b604051602081830303815290604052905060006110ed846110c884611cba565b6040516020016110d9929190613306565b604051602081830303815290604052611cba565b9050600081604051602001611102919061336d565b60405160208183030381529060405290506111516040518060400160405280601581526020017f0a2d2d2d2d2d2d2d2d2d2d2d2d2d2d2d2d2d2d2d2d00000000000000000000008152506112db565b6111798160405160200161116591906132a0565b6040516020818303038152906040526112db565b6111b76040518060400160405280601581526020017f2d2d2d2d2d2d2d2d2d2d2d2d2d2d2d2d2d2d2d2d0a00000000000000000000008152506112db565b6111c1338a611e78565b6111cb8982611e96565b6111d56007611f0a565b6111df6008611f0a565b611202604051806060016040528060258152602001613b51602591398a33611f20565b7febb98688741ffa4c7589bf325de30cf7becb63de567842e1ccdb6cb949fdc82c338a604051611233929190613418565b60405180910390a150505050505050505050565b6000600560008473ffffffffffffffffffffffffffffffffffffffff1673ffffffffffffffffffffffffffffffffffffffff16815260200190815260200160002060008373ffffffffffffffffffffffffffffffffffffffff1673ffffffffffffffffffffffffffffffffffffffff16815260200190815260200160002060009054906101000a900460ff16905092915050565b611371816040516024016112ef919061345c565b6040516020818303038152906040527f41304fac000000000000000000000000000000000000000000000000000000007bffffffffffffffffffffffffffffffffffffffffffffffffffffffff19166020820180517bffffffffffffffffffffffffffffffffffffffffffffffffffffffff8381831617835250505050611fbf565b50565b60007f01ffc9a7000000000000000000000000000000000000000000000000000000007bffffffffffffffffffffffffffffffffffffffffffffffffffffffff1916827bffffffffffffffffffffffffffffffffffffffffffffffffffffffff1916149050919050565b60008073ffffffffffffffffffffffffffffffffffffffff166002600084815260200190815260200160002060009054906101000a900473ffffffffffffffffffffffffffffffffffffffff1673ffffffffffffffffffffffffffffffffffffffff1614159050919050565b600033905090565b816004600083815260200190815260200160002060006101000a81548173ffffffffffffffffffffffffffffffffffffffff021916908373ffffffffffffffffffffffffffffffffffffffff160217905550808273ffffffffffffffffffffffffffffffffffffffff166114c5836109c3565b73ffffffffffffffffffffffffffffffffffffffff167f8c5be1e5ebec7d5bd14f71427d1e84f3dd0314c0f7b2291e5b200ac8c7c3b92560405160405180910390a45050565b6000611516826113de565b611555576040517f08c379a000000000000000000000000000000000000000000000000000000000815260040161154c9061355c565b60405180910390fd5b6000611560836109c3565b90508073ffffffffffffffffffffffffffffffffffffffff168473ffffffffffffffffffffffffffffffffffffffff1614806115cf57508373ffffffffffffffffffffffffffffffffffffffff166115b78461056a565b73ffffffffffffffffffffffffffffffffffffffff16145b806115e057506115df8185611247565b5b91505092915050565b8273ffffffffffffffffffffffffffffffffffffffff16611609826109c3565b73ffffffffffffffffffffffffffffffffffffffff161461165f576040517f08c379a00000000000000000000000000000000000000000000000000000000081526004016116569061365c565b60405180910390fd5b600073ffffffffffffffffffffffffffffffffffffffff168273ffffffffffffffffffffffffffffffffffffffff1614156116cf576040517f08c379a00000000000000000000000000000000000000000000000000000000081526004016116c69061351c565b60405180910390fd5b6116da838383611fe8565b6116e5600082611452565b6001600360008573ffffffffffffffffffffffffffffffffffffffff1673ffffffffffffffffffffffffffffffffffffffff16815260200190815260200160002060008282546117359190613891565b925050819055506001600360008473ffffffffffffffffffffffffffffffffffffffff1673ffffffffffffffffffffffffffffffffffffffff168152602001908152602001600020600082825461178c91906137b0565b92505081905550816002600083815260200190815260200160002060006101000a81548173ffffffffffffffffffffffffffffffffffffffff021916908373ffffffffffffffffffffffffffffffffffffffff160217905550808273ffffffffffffffffffffffffffffffffffffffff168473ffffffffffffffffffffffffffffffffffffffff167fddf252ad1be2c89b69c2b068fc378daa952ba7f163c4a11628f55a4df523b3ef60405160405180910390a4505050565b6060600082141561188d576040518060400160405280600181526020017f300000000000000000000000000000000000000000000000000000000000000081525090506119ed565b600082905060005b600082146118bf5780806118a8906139ad565b915050600a826118b89190613806565b9150611895565b60008167ffffffffffffffff811115611901577f4e487b7100000000000000000000000000000000000000000000000000000000600052604160045260246000fd5b6040519080825280601f01601f1916602001820160405280156119335781602001600182028036833780820191505090505b5090505b600085146119e65760018261194c9190613891565b9150600a8561195b91906139f6565b603061196791906137b0565b60f81b8183815181106119a3577f4e487b7100000000000000000000000000000000000000000000000000000000600052603260045260246000fd5b60200101907effffffffffffffffffffffffffffffffffffffffffffffffffffffffffffff1916908160001a905350600a856119df9190613806565b9450611937565b8093505050505b919050565b600081604051602001611a0591906131eb565b6040516020818303038152906040528051906020012060001c9050919050565b8173ffffffffffffffffffffffffffffffffffffffff168373ffffffffffffffffffffffffffffffffffffffff161415611a94576040517f08c379a0000000000000000000000000000000000000000000000000000000008152600401611a8b9061353c565b60405180910390fd5b80600560008573ffffffffffffffffffffffffffffffffffffffff1673ffffffffffffffffffffffffffffffffffffffff16815260200190815260200160002060008473ffffffffffffffffffffffffffffffffffffffff1673ffffffffffffffffffffffffffffffffffffffff16815260200190815260200160002060006101000a81548160ff0219169083151502179055508173ffffffffffffffffffffffffffffffffffffffff168373ffffffffffffffffffffffffffffffffffffffff167f17307eab39ab6107e8899845ad3d59bd9653f200f220920489ca2b5937696c3183604051611b859190613441565b60405180910390a3505050565b611b9d8484846115e9565b611ba984848484611fed565b611be8576040517f08c379a0000000000000000000000000000000000000000000000000000000008152600401611bdf906134bc565b60405180910390fd5b50505050565b606060405180602001604052806000815250905090565b6060611c10826113de565b611c4f576040517f08c379a0000000000000000000000000000000000000000000000000000000008152600401611c469061367c565b60405180910390fd5b6000611c59611bee565b90506000815111611c795760405180602001604052806000815250611ca4565b80611c8384611845565b604051602001611c94929190613202565b6040516020818303038152906040525b915050919050565b600081600001549050919050565b60606000825190506000811415611ce35760405180602001604052806000815250915050611e73565b60006003600283611cf491906137b0565b611cfe9190613806565b6004611d0a9190613837565b90506000602082611d1b91906137b0565b67ffffffffffffffff811115611d5a577f4e487b7100000000000000000000000000000000000000000000000000000000600052604160045260246000fd5b6040519080825280601f01601f191660200182016040528015611d8c5781602001600182028036833780820191505090505b5090506000604051806060016040528060408152602001613b76604091399050600181016020830160005b86811015611e305760038101905062ffffff818a015116603f8160121c168401518060081b905060ff603f83600c1c1686015116810190508060081b905060ff603f8360061c1686015116810190508060081b905060ff603f831686015116810190508060e01b90508084526004840193505050611db7565b506003860660018114611e4a5760028114611e5a57611e65565b613d3d60f01b6002830352611e65565b603d60f81b60018303525b508484525050819450505050505b919050565b611e92828260405180602001604052806000815250612184565b5050565b611e9f826113de565b611ede576040517f08c379a0000000000000000000000000000000000000000000000000000000008152600401611ed5906135dc565b60405180910390fd5b80600660008481526020019081526020016000209080519060200190611f059291906123c0565b505050565b6001816000016000828254019250508190555050565b611fba838383604051602401611f389392919061347e565b6040516020818303038152906040527fe3849f79000000000000000000000000000000000000000000000000000000007bffffffffffffffffffffffffffffffffffffffffffffffffffffffff19166020820180517bffffffffffffffffffffffffffffffffffffffffffffffffffffffff8381831617835250505050611fbf565b505050565b60008151905060006a636f6e736f6c652e6c6f679050602083016000808483855afa5050505050565b505050565b600061200e8473ffffffffffffffffffffffffffffffffffffffff166121df565b15612177578373ffffffffffffffffffffffffffffffffffffffff1663150b7a0261203761144a565b8786866040518563ffffffff1660e01b815260040161205994939291906133cc565b602060405180830381600087803b15801561207357600080fd5b505af19250505080156120a457506040513d601f19601f820116820180604052508101906120a19190612704565b60015b612127573d80600081146120d4576040519150601f19603f3d011682016040523d82523d6000602084013e6120d9565b606091505b5060008151141561211f576040517f08c379a0000000000000000000000000000000000000000000000000000000008152600401612116906134bc565b60405180910390fd5b805181602001fd5b63150b7a0260e01b7bffffffffffffffffffffffffffffffffffffffffffffffffffffffff1916817bffffffffffffffffffffffffffffffffffffffffffffffffffffffff19161491505061217c565b600190505b949350505050565b61218e83836121f2565b61219b6000848484611fed565b6121da576040517f08c379a00000000000000000000000000000000000000000000000000000000081526004016121d1906134bc565b60405180910390fd5b505050565b600080823b905060008111915050919050565b600073ffffffffffffffffffffffffffffffffffffffff168273ffffffffffffffffffffffffffffffffffffffff161415612262576040517f08c379a0000000000000000000000000000000000000000000000000000000008152600401612259906135fc565b60405180910390fd5b61226b816113de565b156122ab576040517f08c379a00000000000000000000000000000000000000000000000000000000081526004016122a2906134dc565b60405180910390fd5b6122b760008383611fe8565b6001600360008473ffffffffffffffffffffffffffffffffffffffff1673ffffffffffffffffffffffffffffffffffffffff168152602001908152602001600020600082825461230791906137b0565b92505081905550816002600083815260200190815260200160002060006101000a81548173ffffffffffffffffffffffffffffffffffffffff021916908373ffffffffffffffffffffffffffffffffffffffff160217905550808273ffffffffffffffffffffffffffffffffffffffff16600073ffffffffffffffffffffffffffffffffffffffff167fddf252ad1be2c89b69c2b068fc378daa952ba7f163c4a11628f55a4df523b3ef60405160405180910390a45050565b8280546123cc9061397b565b90600052602060002090601f0160209004810192826123ee5760008555612435565b82601f1061240757805160ff1916838001178555612435565b82800160010185558215612435579182015b82811115612434578251825591602001919060010190612419565b5b5090506124429190612446565b5090565b5b8082111561245f576000816000905550600101612447565b5090565b600061247661247184613728565b6136f7565b90508281526020810184848401111561248e57600080fd5b612499848285613939565b509392505050565b6000813590506124b081613af4565b92915050565b6000813590506124c581613b0b565b92915050565b6000813590506124da81613b22565b92915050565b6000815190506124ef81613b22565b92915050565b600082601f83011261250657600080fd5b8135612516848260208601612463565b91505092915050565b60008135905061252e81613b39565b92915050565b60006020828403121561254657600080fd5b6000612554848285016124a1565b91505092915050565b6000806040838503121561257057600080fd5b600061257e858286016124a1565b925050602061258f858286016124a1565b9150509250929050565b6000806000606084860312156125ae57600080fd5b60006125bc868287016124a1565b93505060206125cd868287016124a1565b92505060406125de8682870161251f565b9150509250925092565b600080600080608085870312156125fe57600080fd5b600061260c878288016124a1565b945050602061261d878288016124a1565b935050604061262e8782880161251f565b925050606085013567ffffffffffffffff81111561264b57600080fd5b612657878288016124f5565b91505092959194509250565b6000806040838503121561267657600080fd5b6000612684858286016124a1565b9250506020612695858286016124b6565b9150509250929050565b600080604083850312156126b257600080fd5b60006126c0858286016124a1565b92505060206126d18582860161251f565b9150509250929050565b6000602082840312156126ed57600080fd5b60006126fb848285016124cb565b91505092915050565b60006020828403121561271657600080fd5b6000612724848285016124e0565b91505092915050565b60006020828403121561273f57600080fd5b600061274d8482850161251f565b91505092915050565b61275f816138c5565b82525050565b61276e816138d7565b82525050565b600061277f8261376d565b6127898185613783565b9350612799818560208601613948565b6127a281613ae3565b840191505092915050565b60006127b882613778565b6127c28185613794565b93506127d2818560208601613948565b6127db81613ae3565b840191505092915050565b60006127f182613778565b6127fb81856137a5565b935061280b818560208601613948565b80840191505092915050565b600081546128248161397b565b61282e81866137a5565b94506001821660008114612849576001811461285a5761288d565b60ff1983168652818601935061288d565b61286385613758565b60005b8381101561288557815481890152600182019150602081019050612866565b838801955050505b50505092915050565b60006128a36025836137a5565b91507f68747470733a2f2f6e6674707265766965772e30786465762e636f6465732f3f60008301527f636f64653d0000000000000000000000000000000000000000000000000000006020830152602582019050919050565b6000612909603283613794565b91507f4552433732313a207472616e7366657220746f206e6f6e20455243373231526560008301527f63656976657220696d706c656d656e74657200000000000000000000000000006020830152604082019050919050565b600061296f601c83613794565b91507f4552433732313a20746f6b656e20616c7265616479206d696e746564000000006000830152602082019050919050565b60006129af600a836137a5565b91507f54484952445f574f5244000000000000000000000000000000000000000000006000830152600a82019050919050565b60006129ef601a83613794565b91507f416c6c6f7720746f204f6e6c79204d696e742035304e465473200000000000006000830152602082019050919050565b6000612a2f602483613794565b91507f4552433732313a207472616e7366657220746f20746865207a65726f2061646460008301527f72657373000000000000000000000000000000000000000000000000000000006020830152604082019050919050565b6000612a95601983613794565b91507f4552433732313a20617070726f766520746f2063616c6c6572000000000000006000830152602082019050919050565b6000612ad56063836137a5565b91507f222c20226465736372697074696f6e223a20224120686967686c79206163636c60008301527f61696d656420636f6c6c656374696f6e206f6620737175617265732e222c202260208301527f696d616765223a2022646174613a696d6167652f7376672b786d6c3b6261736560408301527f36342c00000000000000000000000000000000000000000000000000000000006060830152606382019050919050565b6000612b87600b836137a5565b91507f5345434f4e445f574f52440000000000000000000000000000000000000000006000830152600b82019050919050565b6000612bc7602c83613794565b91507f4552433732313a206f70657261746f7220717565727920666f72206e6f6e657860008301527f697374656e7420746f6b656e00000000000000000000000000000000000000006020830152604082019050919050565b6000612c2d600d836137a5565b91507f3c2f746578743e3c2f7376673e000000000000000000000000000000000000006000830152600d82019050919050565b6000612c6d603883613794565b91507f4552433732313a20617070726f76652063616c6c6572206973206e6f74206f7760008301527f6e6572206e6f7220617070726f76656420666f7220616c6c00000000000000006020830152604082019050919050565b6000612cd3602a83613794565b91507f4552433732313a2062616c616e636520717565727920666f7220746865207a6560008301527f726f2061646472657373000000000000000000000000000000000000000000006020830152604082019050919050565b6000612d39602983613794565b91507f4552433732313a206f776e657220717565727920666f72206e6f6e657869737460008301527f656e7420746f6b656e00000000000000000000000000000000000000000000006020830152604082019050919050565b6000612d9f602e83613794565b91507f45524337323155524953746f726167653a2055524920736574206f66206e6f6e60008301527f6578697374656e7420746f6b656e0000000000000000000000000000000000006020830152604082019050919050565b6000612e056002836137a5565b91507f227d0000000000000000000000000000000000000000000000000000000000006000830152600282019050919050565b6000612e45602083613794565b91507f4552433732313a206d696e7420746f20746865207a65726f20616464726573736000830152602082019050919050565b6000612e85603183613794565b91507f45524337323155524953746f726167653a2055524920717565727920666f722060008301527f6e6f6e6578697374656e7420746f6b656e0000000000000000000000000000006020830152604082019050919050565b6000612eeb602c83613794565b91507f4552433732313a20617070726f76656420717565727920666f72206e6f6e657860008301527f697374656e7420746f6b656e00000000000000000000000000000000000000006020830152604082019050919050565b6000612f51602983613794565b91507f4552433732313a207472616e73666572206f6620746f6b656e2074686174206960008301527f73206e6f74206f776e00000000000000000000000000000000000000000000006020830152604082019050919050565b6000612fb7602f83613794565b91507f4552433732314d657461646174613a2055524920717565727920666f72206e6f60008301527f6e6578697374656e7420746f6b656e00000000000000000000000000000000006020830152604082019050919050565b600061301d600a836137a5565b91507f7b226e616d65223a2022000000000000000000000000000000000000000000006000830152600a82019050919050565b600061305d602183613794565b91507f4552433732313a20617070726f76616c20746f2063757272656e74206f776e6560008301527f72000000000000000000000000000000000000000000000000000000000000006020830152604082019050919050565b60006130c3600a836137a5565b91507f46495253545f574f5244000000000000000000000000000000000000000000006000830152600a82019050919050565b6000613103601d836137a5565b91507f646174613a6170706c69636174696f6e2f6a736f6e3b6261736536342c0000006000830152601d82019050919050565b6000613143603183613794565b91507f4552433732313a207472616e736665722063616c6c6572206973206e6f74206f60008301527f776e6572206e6f7220617070726f7665640000000000000000000000000000006020830152604082019050919050565b60006131a96005836137a5565b91507f434f4c4f520000000000000000000000000000000000000000000000000000006000830152600582019050919050565b6131e58161392f565b82525050565b60006131f782846127e6565b915081905092915050565b600061320e82856127e6565b915061321a82846127e6565b91508190509392505050565b600061323282866127e6565b915061323e82856127e6565b915061324a82846127e6565b9150819050949350505050565b60006132638287612817565b915061326f82866127e6565b915061327b8285612817565b915061328782846127e6565b915061329282612c20565b915081905095945050505050565b60006132ab82612896565b91506132b782846127e6565b915081905092915050565b60006132cd826129a2565b91506132d982846127e6565b915081905092915050565b60006132ef82612b7a565b91506132fb82846127e6565b915081905092915050565b600061331182613010565b915061331d82856127e6565b915061332882612ac8565b915061333482846127e6565b915061333f82612df8565b91508190509392505050565b6000613356826130b6565b915061336282846127e6565b915081905092915050565b6000613378826130f6565b915061338482846127e6565b915081905092915050565b600061339a8261319c565b91506133a682846127e6565b915081905092915050565b60006020820190506133c66000830184612756565b92915050565b60006080820190506133e16000830187612756565b6133ee6020830186612756565b6133fb60408301856131dc565b818103606083015261340d8184612774565b905095945050505050565b600060408201905061342d6000830185612756565b61343a60208301846131dc565b9392505050565b60006020820190506134566000830184612765565b92915050565b6000602082019050818103600083015261347681846127ad565b905092915050565b6000606082019050818103600083015261349881866127ad565b90506134a760208301856131dc565b6134b46040830184612756565b949350505050565b600060208201905081810360008301526134d5816128fc565b9050919050565b600060208201905081810360008301526134f581612962565b9050919050565b60006020820190508181036000830152613515816129e2565b9050919050565b6000602082019050818103600083015261353581612a22565b9050919050565b6000602082019050818103600083015261355581612a88565b9050919050565b6000602082019050818103600083015261357581612bba565b9050919050565b6000602082019050818103600083015261359581612c60565b9050919050565b600060208201905081810360008301526135b581612cc6565b9050919050565b600060208201905081810360008301526135d581612d2c565b9050919050565b600060208201905081810360008301526135f581612d92565b9050919050565b6000602082019050818103600083015261361581612e38565b9050919050565b6000602082019050818103600083015261363581612e78565b9050919050565b6000602082019050818103600083015261365581612ede565b9050919050565b6000602082019050818103600083015261367581612f44565b9050919050565b6000602082019050818103600083015261369581612faa565b9050919050565b600060208201905081810360008301526136b581613050565b9050919050565b600060208201905081810360008301526136d581613136565b9050919050565b60006020820190506136f160008301846131dc565b92915050565b6000604051905081810181811067ffffffffffffffff8211171561371e5761371d613ab4565b5b8060405250919050565b600067ffffffffffffffff82111561374357613742613ab4565b5b601f19601f8301169050602081019050919050565b60008190508160005260206000209050919050565b600081519050919050565b600081519050919050565b600082825260208201905092915050565b600082825260208201905092915050565b600081905092915050565b60006137bb8261392f565b91506137c68361392f565b9250827fffffffffffffffffffffffffffffffffffffffffffffffffffffffffffffffff038211156137fb576137fa613a27565b5b828201905092915050565b60006138118261392f565b915061381c8361392f565b92508261382c5761382b613a56565b5b828204905092915050565b60006138428261392f565b915061384d8361392f565b9250817fffffffffffffffffffffffffffffffffffffffffffffffffffffffffffffffff048311821515161561388657613885613a27565b5b828202905092915050565b600061389c8261392f565b91506138a78361392f565b9250828210156138ba576138b9613a27565b5b828203905092915050565b60006138d08261390f565b9050919050565b60008115159050919050565b60007fffffffff0000000000000000000000000000000000000000000000000000000082169050919050565b600073ffffffffffffffffffffffffffffffffffffffff82169050919050565b6000819050919050565b82818337600083830152505050565b60005b8381101561396657808201518184015260208101905061394b565b83811115613975576000848401525b50505050565b6000600282049050600182168061399357607f821691505b602082108114156139a7576139a6613a85565b5b50919050565b60006139b88261392f565b91507fffffffffffffffffffffffffffffffffffffffffffffffffffffffffffffffff8214156139eb576139ea613a27565b5b600182019050919050565b6000613a018261392f565b9150613a0c8361392f565b925082613a1c57613a1b613a56565b5b828206905092915050565b7f4e487b7100000000000000000000000000000000000000000000000000000000600052601160045260246000fd5b7f4e487b7100000000000000000000000000000000000000000000000000000000600052601260045260246000fd5b7f4e487b7100000000000000000000000000000000000000000000000000000000600052602260045260246000fd5b7f4e487b7100000000000000000000000000000000000000000000000000000000600052604160045260246000fd5b6000601f19601f8301169050919050565b613afd816138c5565b8114613b0857600080fd5b50565b613b14816138d7565b8114613b1f57600080fd5b50565b613b2b816138e3565b8114613b3657600080fd5b50565b613b428161392f565b8114613b4d57600080fd5b5056fe416e204e465420772f20494420257320686173206265656e206d696e74656420746f2025734142434445464748494a4b4c4d4e4f505152535455565758595a6162636465666768696a6b6c6d6e6f707172737475767778797a303132333435363738392b2fa2646970667358221220243a32bba1372ceee9525cefe8d126c9675d67fd6183395771de206636092cbb64736f6c634300080000333c73766720786d6c6e733d27687474703a2f2f7777772e77332e6f72672f323030302f73766727207072657365727665417370656374526174696f3d27784d696e594d696e206d656574272076696577426f783d273020302033353020333530273e3c7374796c653e2e62617365207b2066696c6c3a2077686974653b20666f6e742d66616d696c793a2073657269663b20666f6e742d73697a653a20323470783b207d3c2f7374796c653e3c726563742077696474683d273130302527206865696768743d2731303025272066696c6c3d27272f3e3c7465787420783d273530252720793d273530252720636c6173733d27626173652720646f6d696e616e742d626173656c696e653d276d6964646c652720746578742d616e63686f723d276d6964646c65273e",
  "linkReferences": {},
  "deployedLinkReferences": {}
}